{
  "_format": "hh-sol-artifact-1",
  "contractName": "Ratings",
  "sourceName": "contracts/Rating.sol",
  "abi": [
    {
      "anonymous": false,
      "inputs": [
        {
          "indexed": true,
          "internalType": "address",
          "name": "previousOwner",
          "type": "address"
        },
        {
          "indexed": true,
          "internalType": "address",
          "name": "newOwner",
          "type": "address"
        }
      ],
      "name": "OwnershipTransferred",
      "type": "event"
    },
    {
      "inputs": [
        {
          "internalType": "uint256",
          "name": "score",
          "type": "uint256"
        },
        {
          "internalType": "uint256",
          "name": "recipeId",
          "type": "uint256"
        },
        {
          "internalType": "uint256",
          "name": "userId",
          "type": "uint256"
        }
      ],
      "name": "addRating",
      "outputs": [
        {
          "internalType": "uint256",
          "name": "",
          "type": "uint256"
        }
      ],
      "stateMutability": "nonpayable",
      "type": "function"
    },
    {
      "inputs": [],
      "name": "getAllRatings",
      "outputs": [
        {
          "components": [
            {
              "internalType": "uint256",
              "name": "score",
              "type": "uint256"
            },
            {
              "internalType": "uint256",
              "name": "recipeId",
              "type": "uint256"
            },
            {
              "internalType": "uint256",
              "name": "userId",
              "type": "uint256"
            },
            {
              "internalType": "uint256",
              "name": "ratingId",
              "type": "uint256"
            }
          ],
          "internalType": "struct Ratings.Rating[]",
          "name": "",
          "type": "tuple[]"
        }
      ],
      "stateMutability": "view",
      "type": "function"
    },
    {
      "inputs": [
        {
          "internalType": "uint256",
          "name": "recipeId",
          "type": "uint256"
        }
      ],
      "name": "getAverageRating",
      "outputs": [
        {
          "internalType": "uint256",
          "name": "",
          "type": "uint256"
        }
      ],
      "stateMutability": "view",
      "type": "function"
    },
    {
      "inputs": [
        {
          "internalType": "uint256",
          "name": "ratingId",
          "type": "uint256"
        }
      ],
      "name": "getRatingById",
      "outputs": [
        {
          "components": [
            {
              "internalType": "uint256",
              "name": "score",
              "type": "uint256"
            },
            {
              "internalType": "uint256",
              "name": "recipeId",
              "type": "uint256"
            },
            {
              "internalType": "uint256",
              "name": "userId",
              "type": "uint256"
            },
            {
              "internalType": "uint256",
              "name": "ratingId",
              "type": "uint256"
            }
          ],
          "internalType": "struct Ratings.Rating",
          "name": "",
          "type": "tuple"
        }
      ],
      "stateMutability": "view",
      "type": "function"
    },
    {
      "inputs": [
        {
          "internalType": "uint256",
          "name": "recipeId",
          "type": "uint256"
        },
        {
          "internalType": "uint256",
          "name": "userId",
          "type": "uint256"
        }
      ],
      "name": "getUserRatingForRecipe",
      "outputs": [
        {
          "components": [
            {
              "internalType": "uint256",
              "name": "score",
              "type": "uint256"
            },
            {
              "internalType": "uint256",
              "name": "recipeId",
              "type": "uint256"
            },
            {
              "internalType": "uint256",
              "name": "userId",
              "type": "uint256"
            },
            {
              "internalType": "uint256",
              "name": "ratingId",
              "type": "uint256"
            }
          ],
          "internalType": "struct Ratings.Rating",
          "name": "",
          "type": "tuple"
        }
      ],
      "stateMutability": "view",
      "type": "function"
    },
    {
      "inputs": [],
      "name": "owner",
      "outputs": [
        {
          "internalType": "address",
          "name": "",
          "type": "address"
        }
      ],
      "stateMutability": "view",
      "type": "function"
    },
    {
      "inputs": [
        {
          "internalType": "uint256",
          "name": "",
          "type": "uint256"
        }
      ],
      "name": "ratings",
      "outputs": [
        {
          "internalType": "uint256",
          "name": "score",
          "type": "uint256"
        },
        {
          "internalType": "uint256",
          "name": "recipeId",
          "type": "uint256"
        },
        {
          "internalType": "uint256",
          "name": "userId",
          "type": "uint256"
        },
        {
          "internalType": "uint256",
          "name": "ratingId",
          "type": "uint256"
        }
      ],
      "stateMutability": "view",
      "type": "function"
    },
    {
      "inputs": [
        {
          "internalType": "uint256",
          "name": "",
          "type": "uint256"
        },
        {
          "internalType": "uint256",
          "name": "",
          "type": "uint256"
        }
      ],
      "name": "recipeRatings",
      "outputs": [
        {
          "internalType": "uint256",
          "name": "",
          "type": "uint256"
        }
      ],
      "stateMutability": "view",
      "type": "function"
    },
    {
      "inputs": [],
      "name": "renounceOwnership",
      "outputs": [],
      "stateMutability": "nonpayable",
      "type": "function"
    },
    {
      "inputs": [
        {
          "internalType": "address",
          "name": "newOwner",
          "type": "address"
        }
      ],
      "name": "transferOwnership",
      "outputs": [],
      "stateMutability": "nonpayable",
      "type": "function"
    },
    {
      "inputs": [
        {
          "internalType": "uint256",
          "name": "ratingId",
          "type": "uint256"
        },
        {
          "internalType": "uint256",
          "name": "newScore",
          "type": "uint256"
        }
      ],
      "name": "updateRating",
      "outputs": [],
      "stateMutability": "nonpayable",
      "type": "function"
    }
  ],
  "bytecode": "0x608060405234801561001057600080fd5b5060006100216100c460201b60201c565b9050806000806101000a81548173ffffffffffffffffffffffffffffffffffffffff021916908373ffffffffffffffffffffffffffffffffffffffff1602179055508073ffffffffffffffffffffffffffffffffffffffff16600073ffffffffffffffffffffffffffffffffffffffff167f8be0079c531659141344cd1fd0a4f28419497f9722a3daafe3b4186f6b6457e060405160405180910390a3506100cc565b600033905090565b61133e806100db6000396000f3fe608060405234801561001057600080fd5b50600436106100a95760003560e01c80638da5cb5b116100715780638da5cb5b1461017b578063de3cc75614610199578063ea685bfa146101c9578063eac977c4146101f9578063f2fde38b14610217578063fac8243914610233576100a9565b806317b7e03e146100ae5780631d30f6d3146100de5780632a4338741461010e5780635d30e84d1461013e578063715018a614610171575b600080fd5b6100c860048036038101906100c39190610c51565b61024f565b6040516100d59190610c8d565b60405180910390f35b6100f860048036038101906100f39190610ca8565b610325565b6040516101059190610c8d565b60405180910390f35b61012860048036038101906101239190610cfb565b6104b0565b6040516101359190610c8d565b60405180910390f35b61015860048036038101906101539190610c51565b6104e1565b6040516101689493929190610d3b565b60405180910390f35b610179610511565b005b61018361064b565b6040516101909190610dc1565b60405180910390f35b6101b360048036038101906101ae9190610cfb565b610674565b6040516101c09190610e40565b60405180910390f35b6101e360048036038101906101de9190610c51565b6107dd565b6040516101f09190610e40565b60405180910390f35b610201610832565b60405161020e9190610f5f565b60405180910390f35b610231600480360381019061022c9190610fad565b61092e565b005b61024d60048036038101906102489190610cfb565b610ad6565b005b600080600360008481526020019081526020016000208054806020026020016040519081016040528092919081815260200182805480156102af57602002820191906000526020600020905b81548152602001906001019080831161029b575b505050505090506000805b825181101561030e57600260008483815181106102da576102d9610fda565b5b6020026020010151815260200190815260200160002060000154826102ff9190611038565b915080806001019150506102ba565b5081518161031c919061109b565b92505050919050565b600061032f610bc2565b73ffffffffffffffffffffffffffffffffffffffff1661034d61064b565b73ffffffffffffffffffffffffffffffffffffffff16146103a3576040517f08c379a000000000000000000000000000000000000000000000000000000000815260040161039a90611129565b60405180910390fd5b600084101580156103b5575060058411155b6103f4576040517f08c379a00000000000000000000000000000000000000000000000000000000081526004016103eb906111bb565b60405180910390fd5b6103fe6001610bca565b600061040a6001610be0565b9050604051806080016040528086815260200185815260200184815260200182815250600260008381526020019081526020016000206000820151816000015560208201518160010155604082015181600201556060820151816003015590505060036000858152602001908152602001600020819080600181540180825580915050600190039060005260206000200160009091909190915055809150509392505050565b600360205281600052604060002081815481106104cc57600080fd5b90600052602060002001600091509150505481565b60026020528060005260406000206000915090508060000154908060010154908060020154908060030154905084565b610519610bc2565b73ffffffffffffffffffffffffffffffffffffffff1661053761064b565b73ffffffffffffffffffffffffffffffffffffffff161461058d576040517f08c379a000000000000000000000000000000000000000000000000000000000815260040161058490611129565b60405180910390fd5b600073ffffffffffffffffffffffffffffffffffffffff1660008054906101000a900473ffffffffffffffffffffffffffffffffffffffff1673ffffffffffffffffffffffffffffffffffffffff167f8be0079c531659141344cd1fd0a4f28419497f9722a3daafe3b4186f6b6457e060405160405180910390a360008060006101000a81548173ffffffffffffffffffffffffffffffffffffffff021916908373ffffffffffffffffffffffffffffffffffffffff160217905550565b60008060009054906101000a900473ffffffffffffffffffffffffffffffffffffffff16905090565b61067c610bee565b6000600360008581526020019081526020016000208054806020026020016040519081016040528092919081815260200182805480156106db57602002820191906000526020600020905b8154815260200190600101908083116106c7575b5050505050905060005b815181101561079b57836002600084848151811061070657610705610fda565b5b60200260200101518152602001908152602001600020600201540361078e576002600083838151811061073c5761073b610fda565b5b60200260200101518152602001908152602001600020604051806080016040529081600082015481526020016001820154815260200160028201548152602001600382015481525050925050506107d7565b80806001019150506106e5565b506040517f08c379a00000000000000000000000000000000000000000000000000000000081526004016107ce90611227565b60405180910390fd5b92915050565b6107e5610bee565b600260008381526020019081526020016000206040518060800160405290816000820154815260200160018201548152602001600282015481526020016003820154815250509050919050565b606060006108406001610be0565b67ffffffffffffffff81111561085957610858611247565b5b60405190808252806020026020018201604052801561089257816020015b61087f610bee565b8152602001906001900390816108775790505b50905060005b6108a26001610be0565b81101561092657600260006001836108ba9190611038565b815260200190815260200160002060405180608001604052908160008201548152602001600182015481526020016002820154815260200160038201548152505082828151811061090e5761090d610fda565b5b60200260200101819052508080600101915050610898565b508091505090565b610936610bc2565b73ffffffffffffffffffffffffffffffffffffffff1661095461064b565b73ffffffffffffffffffffffffffffffffffffffff16146109aa576040517f08c379a00000000000000000000000000000000000000000000000000000000081526004016109a190611129565b60405180910390fd5b600073ffffffffffffffffffffffffffffffffffffffff168173ffffffffffffffffffffffffffffffffffffffff1603610a19576040517f08c379a0000000000000000000000000000000000000000000000000000000008152600401610a10906112e8565b60405180910390fd5b8073ffffffffffffffffffffffffffffffffffffffff1660008054906101000a900473ffffffffffffffffffffffffffffffffffffffff1673ffffffffffffffffffffffffffffffffffffffff167f8be0079c531659141344cd1fd0a4f28419497f9722a3daafe3b4186f6b6457e060405160405180910390a3806000806101000a81548173ffffffffffffffffffffffffffffffffffffffff021916908373ffffffffffffffffffffffffffffffffffffffff16021790555050565b610ade610bc2565b73ffffffffffffffffffffffffffffffffffffffff16610afc61064b565b73ffffffffffffffffffffffffffffffffffffffff1614610b52576040517f08c379a0000000000000000000000000000000000000000000000000000000008152600401610b4990611129565b60405180910390fd5b60008110158015610b64575060058111155b610ba3576040517f08c379a0000000000000000000000000000000000000000000000000000000008152600401610b9a906111bb565b60405180910390fd5b8060026000848152602001908152602001600020600001819055505050565b600033905090565b6001816000016000828254019250508190555050565b600081600001549050919050565b6040518060800160405280600081526020016000815260200160008152602001600081525090565b600080fd5b6000819050919050565b610c2e81610c1b565b8114610c3957600080fd5b50565b600081359050610c4b81610c25565b92915050565b600060208284031215610c6757610c66610c16565b5b6000610c7584828501610c3c565b91505092915050565b610c8781610c1b565b82525050565b6000602082019050610ca26000830184610c7e565b92915050565b600080600060608486031215610cc157610cc0610c16565b5b6000610ccf86828701610c3c565b9350506020610ce086828701610c3c565b9250506040610cf186828701610c3c565b9150509250925092565b60008060408385031215610d1257610d11610c16565b5b6000610d2085828601610c3c565b9250506020610d3185828601610c3c565b9150509250929050565b6000608082019050610d506000830187610c7e565b610d5d6020830186610c7e565b610d6a6040830185610c7e565b610d776060830184610c7e565b95945050505050565b600073ffffffffffffffffffffffffffffffffffffffff82169050919050565b6000610dab82610d80565b9050919050565b610dbb81610da0565b82525050565b6000602082019050610dd66000830184610db2565b92915050565b610de581610c1b565b82525050565b608082016000820151610e016000850182610ddc565b506020820151610e146020850182610ddc565b506040820151610e276040850182610ddc565b506060820151610e3a6060850182610ddc565b50505050565b6000608082019050610e556000830184610deb565b92915050565b600081519050919050565b600082825260208201905092915050565b6000819050602082019050919050565b608082016000820151610e9d6000850182610ddc565b506020820151610eb06020850182610ddc565b506040820151610ec36040850182610ddc565b506060820151610ed66060850182610ddc565b50505050565b6000610ee88383610e87565b60808301905092915050565b6000602082019050919050565b6000610f0c82610e5b565b610f168185610e66565b9350610f2183610e77565b8060005b83811015610f52578151610f398882610edc565b9750610f4483610ef4565b925050600181019050610f25565b5085935050505092915050565b60006020820190508181036000830152610f798184610f01565b905092915050565b610f8a81610da0565b8114610f9557600080fd5b50565b600081359050610fa781610f81565b92915050565b600060208284031215610fc357610fc2610c16565b5b6000610fd184828501610f98565b91505092915050565b7f4e487b7100000000000000000000000000000000000000000000000000000000600052603260045260246000fd5b7f4e487b7100000000000000000000000000000000000000000000000000000000600052601160045260246000fd5b600061104382610c1b565b915061104e83610c1b565b925082820190508082111561106657611065611009565b5b92915050565b7f4e487b7100000000000000000000000000000000000000000000000000000000600052601260045260246000fd5b60006110a682610c1b565b91506110b183610c1b565b9250826110c1576110c061106c565b5b828204905092915050565b600082825260208201905092915050565b7f4f776e61626c653a2063616c6c6572206973206e6f7420746865206f776e6572600082015250565b60006111136020836110cc565b915061111e826110dd565b602082019050919050565b6000602082019050818103600083015261114281611106565b9050919050565b7f6c612076616c6f726163696f6e20646562652073657220656e7472652030207960008201527f2035000000000000000000000000000000000000000000000000000000000000602082015250565b60006111a56022836110cc565b91506111b082611149565b604082019050919050565b600060208201905081810360008301526111d481611198565b9050919050565b7f56616c6f726163696f6e206e6f20656e636f6e74726164610000000000000000600082015250565b60006112116018836110cc565b915061121c826111db565b602082019050919050565b6000602082019050818103600083015261124081611204565b9050919050565b7f4e487b7100000000000000000000000000000000000000000000000000000000600052604160045260246000fd5b7f4f776e61626c653a206e6577206f776e657220697320746865207a65726f206160008201527f6464726573730000000000000000000000000000000000000000000000000000602082015250565b60006112d26026836110cc565b91506112dd82611276565b604082019050919050565b60006020820190508181036000830152611301816112c5565b905091905056fea26469706673582212200bd7fe537c4bffbe53ae996e61a2321157bf91c2d240274242fc47b60284644464736f6c63430008180033",
  "linkReferences": {},
  "deployedLinkReferences": {}
}