{
  "_format": "hh-sol-artifact-1",
  "contractName": "Users",
  "sourceName": "contracts/User.sol",
  "abi": [
    {
      "anonymous": false,
      "inputs": [
        {
          "indexed": true,
          "internalType": "address",
          "name": "previousOwner",
          "type": "address"
        },
        {
          "indexed": true,
          "internalType": "address",
          "name": "newOwner",
          "type": "address"
        }
      ],
      "name": "OwnershipTransferred",
      "type": "event"
    },
    {
      "inputs": [
        {
          "internalType": "string",
          "name": "name",
          "type": "string"
        },
        {
          "internalType": "string",
          "name": "email",
          "type": "string"
        },
        {
          "internalType": "string",
          "name": "password",
          "type": "string"
        }
      ],
      "name": "addUser",
      "outputs": [
        {
          "internalType": "uint256",
          "name": "",
          "type": "uint256"
        }
      ],
      "stateMutability": "nonpayable",
      "type": "function"
    },
    {
      "inputs": [],
      "name": "getAllUsers",
      "outputs": [
        {
          "components": [
            {
              "internalType": "string",
              "name": "name",
              "type": "string"
            },
            {
              "internalType": "string",
              "name": "email",
              "type": "string"
            },
            {
              "internalType": "string",
              "name": "password",
              "type": "string"
            },
            {
              "internalType": "uint256",
              "name": "userId",
              "type": "uint256"
            }
          ],
          "internalType": "struct Users.User[]",
          "name": "",
          "type": "tuple[]"
        }
      ],
      "stateMutability": "view",
      "type": "function"
    },
    {
      "inputs": [
        {
          "internalType": "uint256",
          "name": "userId",
          "type": "uint256"
        }
      ],
      "name": "getUserById",
      "outputs": [
        {
          "components": [
            {
              "internalType": "string",
              "name": "name",
              "type": "string"
            },
            {
              "internalType": "string",
              "name": "email",
              "type": "string"
            },
            {
              "internalType": "string",
              "name": "password",
              "type": "string"
            },
            {
              "internalType": "uint256",
              "name": "userId",
              "type": "uint256"
            }
          ],
          "internalType": "struct Users.User",
          "name": "",
          "type": "tuple"
        }
      ],
      "stateMutability": "view",
      "type": "function"
    },
    {
      "inputs": [],
      "name": "owner",
      "outputs": [
        {
          "internalType": "address",
          "name": "",
          "type": "address"
        }
      ],
      "stateMutability": "view",
      "type": "function"
    },
    {
      "inputs": [],
      "name": "renounceOwnership",
      "outputs": [],
      "stateMutability": "nonpayable",
      "type": "function"
    },
    {
      "inputs": [
        {
          "internalType": "address",
          "name": "newOwner",
          "type": "address"
        }
      ],
      "name": "transferOwnership",
      "outputs": [],
      "stateMutability": "nonpayable",
      "type": "function"
    },
    {
      "inputs": [
        {
          "internalType": "uint256",
          "name": "",
          "type": "uint256"
        }
      ],
      "name": "users",
      "outputs": [
        {
          "internalType": "string",
          "name": "name",
          "type": "string"
        },
        {
          "internalType": "string",
          "name": "email",
          "type": "string"
        },
        {
          "internalType": "string",
          "name": "password",
          "type": "string"
        },
        {
          "internalType": "uint256",
          "name": "userId",
          "type": "uint256"
        }
      ],
      "stateMutability": "view",
      "type": "function"
    }
  ],
  "bytecode": "0x608060405234801561001057600080fd5b5060006100216100c460201b60201c565b9050806000806101000a81548173ffffffffffffffffffffffffffffffffffffffff021916908373ffffffffffffffffffffffffffffffffffffffff1602179055508073ffffffffffffffffffffffffffffffffffffffff16600073ffffffffffffffffffffffffffffffffffffffff167f8be0079c531659141344cd1fd0a4f28419497f9722a3daafe3b4186f6b6457e060405160405180910390a3506100cc565b600033905090565b611744806100db6000396000f3fe608060405234801561001057600080fd5b506004361061007d5760003560e01c80638da5cb5b1161005b5780638da5cb5b146100ef57806395c5fed41461010d578063e2842d791461013d578063f2fde38b1461015b5761007d565b8063365b98b2146100825780636ed6da9e146100b5578063715018a6146100e5575b600080fd5b61009c60048036038101906100979190610c8d565b610177565b6040516100ac9493929190610d59565b60405180910390f35b6100cf60048036038101906100ca9190610c8d565b61033f565b6040516100dc9190610e7d565b60405180910390f35b6100ed61052c565b005b6100f7610666565b6040516101049190610ee0565b60405180910390f35b61012760048036038101906101229190611030565b61068f565b60405161013491906110d7565b60405180910390f35b6101456107b3565b6040516101529190611225565b60405180910390f35b61017560048036038101906101709190611273565b610a47565b005b600260205280600052604060002060009150905080600001805461019a906112cf565b80601f01602080910402602001604051908101604052809291908181526020018280546101c6906112cf565b80156102135780601f106101e857610100808354040283529160200191610213565b820191906000526020600020905b8154815290600101906020018083116101f657829003601f168201915b505050505090806001018054610228906112cf565b80601f0160208091040260200160405190810160405280929190818152602001828054610254906112cf565b80156102a15780601f10610276576101008083540402835291602001916102a1565b820191906000526020600020905b81548152906001019060200180831161028457829003601f168201915b5050505050908060020180546102b6906112cf565b80601f01602080910402602001604051908101604052809291908181526020018280546102e2906112cf565b801561032f5780601f106103045761010080835404028352916020019161032f565b820191906000526020600020905b81548152906001019060200180831161031257829003601f168201915b5050505050908060030154905084565b610347610c1b565b60026000838152602001908152602001600020604051806080016040529081600082018054610375906112cf565b80601f01602080910402602001604051908101604052809291908181526020018280546103a1906112cf565b80156103ee5780601f106103c3576101008083540402835291602001916103ee565b820191906000526020600020905b8154815290600101906020018083116103d157829003601f168201915b50505050508152602001600182018054610407906112cf565b80601f0160208091040260200160405190810160405280929190818152602001828054610433906112cf565b80156104805780601f1061045557610100808354040283529160200191610480565b820191906000526020600020905b81548152906001019060200180831161046357829003601f168201915b50505050508152602001600282018054610499906112cf565b80601f01602080910402602001604051908101604052809291908181526020018280546104c5906112cf565b80156105125780601f106104e757610100808354040283529160200191610512565b820191906000526020600020905b8154815290600101906020018083116104f557829003601f168201915b505050505081526020016003820154815250509050919050565b610534610bef565b73ffffffffffffffffffffffffffffffffffffffff16610552610666565b73ffffffffffffffffffffffffffffffffffffffff16146105a8576040517f08c379a000000000000000000000000000000000000000000000000000000000815260040161059f9061134c565b60405180910390fd5b600073ffffffffffffffffffffffffffffffffffffffff1660008054906101000a900473ffffffffffffffffffffffffffffffffffffffff1673ffffffffffffffffffffffffffffffffffffffff167f8be0079c531659141344cd1fd0a4f28419497f9722a3daafe3b4186f6b6457e060405160405180910390a360008060006101000a81548173ffffffffffffffffffffffffffffffffffffffff021916908373ffffffffffffffffffffffffffffffffffffffff160217905550565b60008060009054906101000a900473ffffffffffffffffffffffffffffffffffffffff16905090565b6000610699610bef565b73ffffffffffffffffffffffffffffffffffffffff166106b7610666565b73ffffffffffffffffffffffffffffffffffffffff161461070d576040517f08c379a00000000000000000000000000000000000000000000000000000000081526004016107049061134c565b60405180910390fd5b6107176001610bf7565b60006107236001610c0d565b905060405180608001604052808681526020018581526020018481526020018281525060026000838152602001908152602001600020600082015181600001908161076e9190611518565b5060208201518160010190816107849190611518565b50604082015181600201908161079a9190611518565b5060608201518160030155905050809150509392505050565b606060006107c16001610c0d565b67ffffffffffffffff8111156107da576107d9610f05565b5b60405190808252806020026020018201604052801561081357816020015b610800610c1b565b8152602001906001900390816107f85790505b50905060005b6108236001610c0d565b811015610a3f576002600060018361083b9190611619565b8152602001908152602001600020604051806080016040529081600082018054610864906112cf565b80601f0160208091040260200160405190810160405280929190818152602001828054610890906112cf565b80156108dd5780601f106108b2576101008083540402835291602001916108dd565b820191906000526020600020905b8154815290600101906020018083116108c057829003601f168201915b505050505081526020016001820180546108f6906112cf565b80601f0160208091040260200160405190810160405280929190818152602001828054610922906112cf565b801561096f5780601f106109445761010080835404028352916020019161096f565b820191906000526020600020905b81548152906001019060200180831161095257829003601f168201915b50505050508152602001600282018054610988906112cf565b80601f01602080910402602001604051908101604052809291908181526020018280546109b4906112cf565b8015610a015780601f106109d657610100808354040283529160200191610a01565b820191906000526020600020905b8154815290600101906020018083116109e457829003601f168201915b50505050508152602001600382015481525050828281518110610a2757610a2661164d565b5b60200260200101819052508080600101915050610819565b508091505090565b610a4f610bef565b73ffffffffffffffffffffffffffffffffffffffff16610a6d610666565b73ffffffffffffffffffffffffffffffffffffffff1614610ac3576040517f08c379a0000000000000000000000000000000000000000000000000000000008152600401610aba9061134c565b60405180910390fd5b600073ffffffffffffffffffffffffffffffffffffffff168173ffffffffffffffffffffffffffffffffffffffff1603610b32576040517f08c379a0000000000000000000000000000000000000000000000000000000008152600401610b29906116ee565b60405180910390fd5b8073ffffffffffffffffffffffffffffffffffffffff1660008054906101000a900473ffffffffffffffffffffffffffffffffffffffff1673ffffffffffffffffffffffffffffffffffffffff167f8be0079c531659141344cd1fd0a4f28419497f9722a3daafe3b4186f6b6457e060405160405180910390a3806000806101000a81548173ffffffffffffffffffffffffffffffffffffffff021916908373ffffffffffffffffffffffffffffffffffffffff16021790555050565b600033905090565b6001816000016000828254019250508190555050565b600081600001549050919050565b6040518060800160405280606081526020016060815260200160608152602001600081525090565b6000604051905090565b600080fd5b600080fd5b6000819050919050565b610c6a81610c57565b8114610c7557600080fd5b50565b600081359050610c8781610c61565b92915050565b600060208284031215610ca357610ca2610c4d565b5b6000610cb184828501610c78565b91505092915050565b600081519050919050565b600082825260208201905092915050565b60005b83811015610cf4578082015181840152602081019050610cd9565b60008484015250505050565b6000601f19601f8301169050919050565b6000610d1c82610cba565b610d268185610cc5565b9350610d36818560208601610cd6565b610d3f81610d00565b840191505092915050565b610d5381610c57565b82525050565b60006080820190508181036000830152610d738187610d11565b90508181036020830152610d878186610d11565b90508181036040830152610d9b8185610d11565b9050610daa6060830184610d4a565b95945050505050565b600082825260208201905092915050565b6000610dcf82610cba565b610dd98185610db3565b9350610de9818560208601610cd6565b610df281610d00565b840191505092915050565b610e0681610c57565b82525050565b60006080830160008301518482036000860152610e298282610dc4565b91505060208301518482036020860152610e438282610dc4565b91505060408301518482036040860152610e5d8282610dc4565b9150506060830151610e726060860182610dfd565b508091505092915050565b60006020820190508181036000830152610e978184610e0c565b905092915050565b600073ffffffffffffffffffffffffffffffffffffffff82169050919050565b6000610eca82610e9f565b9050919050565b610eda81610ebf565b82525050565b6000602082019050610ef56000830184610ed1565b92915050565b600080fd5b600080fd5b7f4e487b7100000000000000000000000000000000000000000000000000000000600052604160045260246000fd5b610f3d82610d00565b810181811067ffffffffffffffff82111715610f5c57610f5b610f05565b5b80604052505050565b6000610f6f610c43565b9050610f7b8282610f34565b919050565b600067ffffffffffffffff821115610f9b57610f9a610f05565b5b610fa482610d00565b9050602081019050919050565b82818337600083830152505050565b6000610fd3610fce84610f80565b610f65565b905082815260208101848484011115610fef57610fee610f00565b5b610ffa848285610fb1565b509392505050565b600082601f83011261101757611016610efb565b5b8135611027848260208601610fc0565b91505092915050565b60008060006060848603121561104957611048610c4d565b5b600084013567ffffffffffffffff81111561106757611066610c52565b5b61107386828701611002565b935050602084013567ffffffffffffffff81111561109457611093610c52565b5b6110a086828701611002565b925050604084013567ffffffffffffffff8111156110c1576110c0610c52565b5b6110cd86828701611002565b9150509250925092565b60006020820190506110ec6000830184610d4a565b92915050565b600081519050919050565b600082825260208201905092915050565b6000819050602082019050919050565b6000608083016000830151848203600086015261113b8282610dc4565b915050602083015184820360208601526111558282610dc4565b9150506040830151848203604086015261116f8282610dc4565b91505060608301516111846060860182610dfd565b508091505092915050565b600061119b838361111e565b905092915050565b6000602082019050919050565b60006111bb826110f2565b6111c581856110fd565b9350836020820285016111d78561110e565b8060005b8581101561121357848403895281516111f4858261118f565b94506111ff836111a3565b925060208a019950506001810190506111db565b50829750879550505050505092915050565b6000602082019050818103600083015261123f81846111b0565b905092915050565b61125081610ebf565b811461125b57600080fd5b50565b60008135905061126d81611247565b92915050565b60006020828403121561128957611288610c4d565b5b60006112978482850161125e565b91505092915050565b7f4e487b7100000000000000000000000000000000000000000000000000000000600052602260045260246000fd5b600060028204905060018216806112e757607f821691505b6020821081036112fa576112f96112a0565b5b50919050565b7f4f776e61626c653a2063616c6c6572206973206e6f7420746865206f776e6572600082015250565b6000611336602083610cc5565b915061134182611300565b602082019050919050565b6000602082019050818103600083015261136581611329565b9050919050565b60008190508160005260206000209050919050565b60006020601f8301049050919050565b600082821b905092915050565b6000600883026113ce7fffffffffffffffffffffffffffffffffffffffffffffffffffffffffffffffff82611391565b6113d88683611391565b95508019841693508086168417925050509392505050565b6000819050919050565b600061141561141061140b84610c57565b6113f0565b610c57565b9050919050565b6000819050919050565b61142f836113fa565b61144361143b8261141c565b84845461139e565b825550505050565b600090565b61145861144b565b611463818484611426565b505050565b5b818110156114875761147c600082611450565b600181019050611469565b5050565b601f8211156114cc5761149d8161136c565b6114a684611381565b810160208510156114b5578190505b6114c96114c185611381565b830182611468565b50505b505050565b600082821c905092915050565b60006114ef600019846008026114d1565b1980831691505092915050565b600061150883836114de565b9150826002028217905092915050565b61152182610cba565b67ffffffffffffffff81111561153a57611539610f05565b5b61154482546112cf565b61154f82828561148b565b600060209050601f8311600181146115825760008415611570578287015190505b61157a85826114fc565b8655506115e2565b601f1984166115908661136c565b60005b828110156115b857848901518255600182019150602085019450602081019050611593565b868310156115d557848901516115d1601f8916826114de565b8355505b6001600288020188555050505b505050505050565b7f4e487b7100000000000000000000000000000000000000000000000000000000600052601160045260246000fd5b600061162482610c57565b915061162f83610c57565b9250828201905080821115611647576116466115ea565b5b92915050565b7f4e487b7100000000000000000000000000000000000000000000000000000000600052603260045260246000fd5b7f4f776e61626c653a206e6577206f776e657220697320746865207a65726f206160008201527f6464726573730000000000000000000000000000000000000000000000000000602082015250565b60006116d8602683610cc5565b91506116e38261167c565b604082019050919050565b60006020820190508181036000830152611707816116cb565b905091905056fea2646970667358221220a42e58141c52152ddc2036e2c32f373c4016921472525d9f45e493c0da8693cb64736f6c63430008180033",
  "linkReferences": {},
  "deployedLinkReferences": {}
}