{
  "_format": "hh-sol-artifact-1",
  "contractName": "Recipes",
  "sourceName": "contracts/Recipe.sol",
  "abi": [
    {
      "anonymous": false,
      "inputs": [
        {
          "indexed": true,
          "internalType": "address",
          "name": "previousOwner",
          "type": "address"
        },
        {
          "indexed": true,
          "internalType": "address",
          "name": "newOwner",
          "type": "address"
        }
      ],
      "name": "OwnershipTransferred",
      "type": "event"
    },
    {
      "inputs": [
        {
          "internalType": "string",
          "name": "name",
          "type": "string"
        },
        {
          "internalType": "string",
          "name": "description",
          "type": "string"
        },
        {
          "internalType": "string",
          "name": "ingredients",
          "type": "string"
        },
        {
          "internalType": "string",
          "name": "steps",
          "type": "string"
        },
        {
          "internalType": "uint256",
          "name": "authorId",
          "type": "uint256"
        }
      ],
      "name": "addRecipe",
      "outputs": [
        {
          "internalType": "uint256",
          "name": "",
          "type": "uint256"
        }
      ],
      "stateMutability": "nonpayable",
      "type": "function"
    },
    {
      "inputs": [],
      "name": "getAllRecipes",
      "outputs": [
        {
          "components": [
            {
              "internalType": "string",
              "name": "name",
              "type": "string"
            },
            {
              "internalType": "string",
              "name": "description",
              "type": "string"
            },
            {
              "internalType": "string",
              "name": "ingredients",
              "type": "string"
            },
            {
              "internalType": "string",
              "name": "steps",
              "type": "string"
            },
            {
              "internalType": "uint256",
              "name": "authorId",
              "type": "uint256"
            },
            {
              "internalType": "uint256",
              "name": "recipeId",
              "type": "uint256"
            }
          ],
          "internalType": "struct Recipes.Recipe[]",
          "name": "",
          "type": "tuple[]"
        }
      ],
      "stateMutability": "view",
      "type": "function"
    },
    {
      "inputs": [
        {
          "internalType": "uint256",
          "name": "recipeId",
          "type": "uint256"
        }
      ],
      "name": "getRecipeById",
      "outputs": [
        {
          "components": [
            {
              "internalType": "string",
              "name": "name",
              "type": "string"
            },
            {
              "internalType": "string",
              "name": "description",
              "type": "string"
            },
            {
              "internalType": "string",
              "name": "ingredients",
              "type": "string"
            },
            {
              "internalType": "string",
              "name": "steps",
              "type": "string"
            },
            {
              "internalType": "uint256",
              "name": "authorId",
              "type": "uint256"
            },
            {
              "internalType": "uint256",
              "name": "recipeId",
              "type": "uint256"
            }
          ],
          "internalType": "struct Recipes.Recipe",
          "name": "",
          "type": "tuple"
        }
      ],
      "stateMutability": "view",
      "type": "function"
    },
    {
      "inputs": [],
      "name": "owner",
      "outputs": [
        {
          "internalType": "address",
          "name": "",
          "type": "address"
        }
      ],
      "stateMutability": "view",
      "type": "function"
    },
    {
      "inputs": [
        {
          "internalType": "uint256",
          "name": "",
          "type": "uint256"
        }
      ],
      "name": "recipes",
      "outputs": [
        {
          "internalType": "string",
          "name": "name",
          "type": "string"
        },
        {
          "internalType": "string",
          "name": "description",
          "type": "string"
        },
        {
          "internalType": "string",
          "name": "ingredients",
          "type": "string"
        },
        {
          "internalType": "string",
          "name": "steps",
          "type": "string"
        },
        {
          "internalType": "uint256",
          "name": "authorId",
          "type": "uint256"
        },
        {
          "internalType": "uint256",
          "name": "recipeId",
          "type": "uint256"
        }
      ],
      "stateMutability": "view",
      "type": "function"
    },
    {
      "inputs": [],
      "name": "renounceOwnership",
      "outputs": [],
      "stateMutability": "nonpayable",
      "type": "function"
    },
    {
      "inputs": [
        {
          "internalType": "address",
          "name": "newOwner",
          "type": "address"
        }
      ],
      "name": "transferOwnership",
      "outputs": [],
      "stateMutability": "nonpayable",
      "type": "function"
    }
  ],
  "bytecode": "0x608060405234801561001057600080fd5b5060006100216100c460201b60201c565b9050806000806101000a81548173ffffffffffffffffffffffffffffffffffffffff021916908373ffffffffffffffffffffffffffffffffffffffff1602179055508073ffffffffffffffffffffffffffffffffffffffff16600073ffffffffffffffffffffffffffffffffffffffff167f8be0079c531659141344cd1fd0a4f28419497f9722a3daafe3b4186f6b6457e060405160405180910390a3506100cc565b600033905090565b611a0f806100db6000396000f3fe608060405234801561001057600080fd5b506004361061007d5760003560e01c806385db92051161005b57806385db9205146100f15780638da5cb5b14610121578063d075f9211461013f578063f2fde38b1461015d5761007d565b8063443c227c1461008257806359ecd430146100b7578063715018a6146100e7575b600080fd5b61009c60048036038101906100979190610e97565b610179565b6040516100ae96959493929190610f63565b60405180910390f35b6100d160048036038101906100cc9190611115565b6103d5565b6040516100de9190611200565b60405180910390f35b6100ef610527565b005b61010b60048036038101906101069190610e97565b610661565b6040516101189190611312565b60405180910390f35b6101296108ea565b6040516101369190611375565b60405180910390f35b610147610913565b60405161015491906114f0565b60405180910390f35b6101776004803603810190610172919061153e565b610c43565b005b600260205280600052604060002060009150905080600001805461019c9061159a565b80601f01602080910402602001604051908101604052809291908181526020018280546101c89061159a565b80156102155780601f106101ea57610100808354040283529160200191610215565b820191906000526020600020905b8154815290600101906020018083116101f857829003601f168201915b50505050509080600101805461022a9061159a565b80601f01602080910402602001604051908101604052809291908181526020018280546102569061159a565b80156102a35780601f10610278576101008083540402835291602001916102a3565b820191906000526020600020905b81548152906001019060200180831161028657829003601f168201915b5050505050908060020180546102b89061159a565b80601f01602080910402602001604051908101604052809291908181526020018280546102e49061159a565b80156103315780601f1061030657610100808354040283529160200191610331565b820191906000526020600020905b81548152906001019060200180831161031457829003601f168201915b5050505050908060030180546103469061159a565b80601f01602080910402602001604051908101604052809291908181526020018280546103729061159a565b80156103bf5780601f10610394576101008083540402835291602001916103bf565b820191906000526020600020905b8154815290600101906020018083116103a257829003601f168201915b5050505050908060040154908060050154905086565b60006103df610deb565b73ffffffffffffffffffffffffffffffffffffffff166103fd6108ea565b73ffffffffffffffffffffffffffffffffffffffff1614610453576040517f08c379a000000000000000000000000000000000000000000000000000000000815260040161044a90611617565b60405180910390fd5b61045d6001610df3565b60006104696001610e09565b90506040518060c00160405280888152602001878152602001868152602001858152602001848152602001828152506002600083815260200190815260200160002060008201518160000190816104c091906117e3565b5060208201518160010190816104d691906117e3565b5060408201518160020190816104ec91906117e3565b50606082015181600301908161050291906117e3565b506080820151816004015560a082015181600501559050508091505095945050505050565b61052f610deb565b73ffffffffffffffffffffffffffffffffffffffff1661054d6108ea565b73ffffffffffffffffffffffffffffffffffffffff16146105a3576040517f08c379a000000000000000000000000000000000000000000000000000000000815260040161059a90611617565b60405180910390fd5b600073ffffffffffffffffffffffffffffffffffffffff1660008054906101000a900473ffffffffffffffffffffffffffffffffffffffff1673ffffffffffffffffffffffffffffffffffffffff167f8be0079c531659141344cd1fd0a4f28419497f9722a3daafe3b4186f6b6457e060405160405180910390a360008060006101000a81548173ffffffffffffffffffffffffffffffffffffffff021916908373ffffffffffffffffffffffffffffffffffffffff160217905550565b610669610e17565b600260008381526020019081526020016000206040518060c00160405290816000820180546106979061159a565b80601f01602080910402602001604051908101604052809291908181526020018280546106c39061159a565b80156107105780601f106106e557610100808354040283529160200191610710565b820191906000526020600020905b8154815290600101906020018083116106f357829003601f168201915b505050505081526020016001820180546107299061159a565b80601f01602080910402602001604051908101604052809291908181526020018280546107559061159a565b80156107a25780601f10610777576101008083540402835291602001916107a2565b820191906000526020600020905b81548152906001019060200180831161078557829003601f168201915b505050505081526020016002820180546107bb9061159a565b80601f01602080910402602001604051908101604052809291908181526020018280546107e79061159a565b80156108345780601f1061080957610100808354040283529160200191610834565b820191906000526020600020905b81548152906001019060200180831161081757829003601f168201915b5050505050815260200160038201805461084d9061159a565b80601f01602080910402602001604051908101604052809291908181526020018280546108799061159a565b80156108c65780601f1061089b576101008083540402835291602001916108c6565b820191906000526020600020905b8154815290600101906020018083116108a957829003601f168201915b50505050508152602001600482015481526020016005820154815250509050919050565b60008060009054906101000a900473ffffffffffffffffffffffffffffffffffffffff16905090565b606060006109216001610e09565b67ffffffffffffffff81111561093a57610939610fea565b5b60405190808252806020026020018201604052801561097357816020015b610960610e17565b8152602001906001900390816109585790505b50905060005b6109836001610e09565b811015610c3b576002600060018361099b91906118e4565b81526020019081526020016000206040518060c00160405290816000820180546109c49061159a565b80601f01602080910402602001604051908101604052809291908181526020018280546109f09061159a565b8015610a3d5780601f10610a1257610100808354040283529160200191610a3d565b820191906000526020600020905b815481529060010190602001808311610a2057829003601f168201915b50505050508152602001600182018054610a569061159a565b80601f0160208091040260200160405190810160405280929190818152602001828054610a829061159a565b8015610acf5780601f10610aa457610100808354040283529160200191610acf565b820191906000526020600020905b815481529060010190602001808311610ab257829003601f168201915b50505050508152602001600282018054610ae89061159a565b80601f0160208091040260200160405190810160405280929190818152602001828054610b149061159a565b8015610b615780601f10610b3657610100808354040283529160200191610b61565b820191906000526020600020905b815481529060010190602001808311610b4457829003601f168201915b50505050508152602001600382018054610b7a9061159a565b80601f0160208091040260200160405190810160405280929190818152602001828054610ba69061159a565b8015610bf35780601f10610bc857610100808354040283529160200191610bf3565b820191906000526020600020905b815481529060010190602001808311610bd657829003601f168201915b5050505050815260200160048201548152602001600582015481525050828281518110610c2357610c22611918565b5b60200260200101819052508080600101915050610979565b508091505090565b610c4b610deb565b73ffffffffffffffffffffffffffffffffffffffff16610c696108ea565b73ffffffffffffffffffffffffffffffffffffffff1614610cbf576040517f08c379a0000000000000000000000000000000000000000000000000000000008152600401610cb690611617565b60405180910390fd5b600073ffffffffffffffffffffffffffffffffffffffff168173ffffffffffffffffffffffffffffffffffffffff1603610d2e576040517f08c379a0000000000000000000000000000000000000000000000000000000008152600401610d25906119b9565b60405180910390fd5b8073ffffffffffffffffffffffffffffffffffffffff1660008054906101000a900473ffffffffffffffffffffffffffffffffffffffff1673ffffffffffffffffffffffffffffffffffffffff167f8be0079c531659141344cd1fd0a4f28419497f9722a3daafe3b4186f6b6457e060405160405180910390a3806000806101000a81548173ffffffffffffffffffffffffffffffffffffffff021916908373ffffffffffffffffffffffffffffffffffffffff16021790555050565b600033905090565b6001816000016000828254019250508190555050565b600081600001549050919050565b6040518060c001604052806060815260200160608152602001606081526020016060815260200160008152602001600081525090565b6000604051905090565b600080fd5b600080fd5b6000819050919050565b610e7481610e61565b8114610e7f57600080fd5b50565b600081359050610e9181610e6b565b92915050565b600060208284031215610ead57610eac610e57565b5b6000610ebb84828501610e82565b91505092915050565b600081519050919050565b600082825260208201905092915050565b60005b83811015610efe578082015181840152602081019050610ee3565b60008484015250505050565b6000601f19601f8301169050919050565b6000610f2682610ec4565b610f308185610ecf565b9350610f40818560208601610ee0565b610f4981610f0a565b840191505092915050565b610f5d81610e61565b82525050565b600060c0820190508181036000830152610f7d8189610f1b565b90508181036020830152610f918188610f1b565b90508181036040830152610fa58187610f1b565b90508181036060830152610fb98186610f1b565b9050610fc86080830185610f54565b610fd560a0830184610f54565b979650505050505050565b600080fd5b600080fd5b7f4e487b7100000000000000000000000000000000000000000000000000000000600052604160045260246000fd5b61102282610f0a565b810181811067ffffffffffffffff8211171561104157611040610fea565b5b80604052505050565b6000611054610e4d565b90506110608282611019565b919050565b600067ffffffffffffffff8211156110805761107f610fea565b5b61108982610f0a565b9050602081019050919050565b82818337600083830152505050565b60006110b86110b384611065565b61104a565b9050828152602081018484840111156110d4576110d3610fe5565b5b6110df848285611096565b509392505050565b600082601f8301126110fc576110fb610fe0565b5b813561110c8482602086016110a5565b91505092915050565b600080600080600060a0868803121561113157611130610e57565b5b600086013567ffffffffffffffff81111561114f5761114e610e5c565b5b61115b888289016110e7565b955050602086013567ffffffffffffffff81111561117c5761117b610e5c565b5b611188888289016110e7565b945050604086013567ffffffffffffffff8111156111a9576111a8610e5c565b5b6111b5888289016110e7565b935050606086013567ffffffffffffffff8111156111d6576111d5610e5c565b5b6111e2888289016110e7565b92505060806111f388828901610e82565b9150509295509295909350565b60006020820190506112156000830184610f54565b92915050565b600082825260208201905092915050565b600061123782610ec4565b611241818561121b565b9350611251818560208601610ee0565b61125a81610f0a565b840191505092915050565b61126e81610e61565b82525050565b600060c0830160008301518482036000860152611291828261122c565b915050602083015184820360208601526112ab828261122c565b915050604083015184820360408601526112c5828261122c565b915050606083015184820360608601526112df828261122c565b91505060808301516112f46080860182611265565b5060a083015161130760a0860182611265565b508091505092915050565b6000602082019050818103600083015261132c8184611274565b905092915050565b600073ffffffffffffffffffffffffffffffffffffffff82169050919050565b600061135f82611334565b9050919050565b61136f81611354565b82525050565b600060208201905061138a6000830184611366565b92915050565b600081519050919050565b600082825260208201905092915050565b6000819050602082019050919050565b600060c08301600083015184820360008601526113d9828261122c565b915050602083015184820360208601526113f3828261122c565b9150506040830151848203604086015261140d828261122c565b91505060608301518482036060860152611427828261122c565b915050608083015161143c6080860182611265565b5060a083015161144f60a0860182611265565b508091505092915050565b600061146683836113bc565b905092915050565b6000602082019050919050565b600061148682611390565b611490818561139b565b9350836020820285016114a2856113ac565b8060005b858110156114de57848403895281516114bf858261145a565b94506114ca8361146e565b925060208a019950506001810190506114a6565b50829750879550505050505092915050565b6000602082019050818103600083015261150a818461147b565b905092915050565b61151b81611354565b811461152657600080fd5b50565b60008135905061153881611512565b92915050565b60006020828403121561155457611553610e57565b5b600061156284828501611529565b91505092915050565b7f4e487b7100000000000000000000000000000000000000000000000000000000600052602260045260246000fd5b600060028204905060018216806115b257607f821691505b6020821081036115c5576115c461156b565b5b50919050565b7f4f776e61626c653a2063616c6c6572206973206e6f7420746865206f776e6572600082015250565b6000611601602083610ecf565b915061160c826115cb565b602082019050919050565b60006020820190508181036000830152611630816115f4565b9050919050565b60008190508160005260206000209050919050565b60006020601f8301049050919050565b600082821b905092915050565b6000600883026116997fffffffffffffffffffffffffffffffffffffffffffffffffffffffffffffffff8261165c565b6116a3868361165c565b95508019841693508086168417925050509392505050565b6000819050919050565b60006116e06116db6116d684610e61565b6116bb565b610e61565b9050919050565b6000819050919050565b6116fa836116c5565b61170e611706826116e7565b848454611669565b825550505050565b600090565b611723611716565b61172e8184846116f1565b505050565b5b818110156117525761174760008261171b565b600181019050611734565b5050565b601f8211156117975761176881611637565b6117718461164c565b81016020851015611780578190505b61179461178c8561164c565b830182611733565b50505b505050565b600082821c905092915050565b60006117ba6000198460080261179c565b1980831691505092915050565b60006117d383836117a9565b9150826002028217905092915050565b6117ec82610ec4565b67ffffffffffffffff81111561180557611804610fea565b5b61180f825461159a565b61181a828285611756565b600060209050601f83116001811461184d576000841561183b578287015190505b61184585826117c7565b8655506118ad565b601f19841661185b86611637565b60005b828110156118835784890151825560018201915060208501945060208101905061185e565b868310156118a0578489015161189c601f8916826117a9565b8355505b6001600288020188555050505b505050505050565b7f4e487b7100000000000000000000000000000000000000000000000000000000600052601160045260246000fd5b60006118ef82610e61565b91506118fa83610e61565b9250828201905080821115611912576119116118b5565b5b92915050565b7f4e487b7100000000000000000000000000000000000000000000000000000000600052603260045260246000fd5b7f4f776e61626c653a206e6577206f776e657220697320746865207a65726f206160008201527f6464726573730000000000000000000000000000000000000000000000000000602082015250565b60006119a3602683610ecf565b91506119ae82611947565b604082019050919050565b600060208201905081810360008301526119d281611996565b905091905056fea2646970667358221220474a83166845913c23fad0aa03a987376bfe89eed4f56ff0a11205e7ebcdc56064736f6c63430008180033",
  "linkReferences": {},
  "deployedLinkReferences": {}
}